{
  "contractName": "Nftrees",
  "abi": [
    {
      "inputs": [
        {
          "internalType": "string",
          "name": "myBase",
          "type": "string"
        }
      ],
      "stateMutability": "nonpayable",
      "type": "constructor"
    },
    {
      "anonymous": false,
      "inputs": [
        {
          "indexed": true,
          "internalType": "address",
          "name": "owner",
          "type": "address"
        },
        {
          "indexed": true,
          "internalType": "address",
          "name": "approved",
          "type": "address"
        },
        {
          "indexed": true,
          "internalType": "uint256",
          "name": "tokenId",
          "type": "uint256"
        }
      ],
      "name": "Approval",
      "type": "event"
    },
    {
      "anonymous": false,
      "inputs": [
        {
          "indexed": true,
          "internalType": "address",
          "name": "owner",
          "type": "address"
        },
        {
          "indexed": true,
          "internalType": "address",
          "name": "operator",
          "type": "address"
        },
        {
          "indexed": false,
          "internalType": "bool",
          "name": "approved",
          "type": "bool"
        }
      ],
      "name": "ApprovalForAll",
      "type": "event"
    },
    {
      "anonymous": false,
      "inputs": [
        {
          "indexed": false,
          "internalType": "uint256",
          "name": "newCap",
          "type": "uint256"
        }
      ],
      "name": "CapChanged",
      "type": "event"
    },
    {
      "anonymous": false,
      "inputs": [
        {
          "indexed": true,
          "internalType": "address",
          "name": "from",
          "type": "address"
        },
        {
          "indexed": true,
          "internalType": "address",
          "name": "to",
          "type": "address"
        },
        {
          "indexed": true,
          "internalType": "uint256",
          "name": "tokenId",
          "type": "uint256"
        }
      ],
      "name": "Transfer",
      "type": "event"
    },
    {
      "inputs": [
        {
          "internalType": "address",
          "name": "to",
          "type": "address"
        },
        {
          "internalType": "uint256",
          "name": "tokenId",
          "type": "uint256"
        }
      ],
      "name": "approve",
      "outputs": [],
      "stateMutability": "nonpayable",
      "type": "function"
    },
    {
      "inputs": [
        {
          "internalType": "address",
          "name": "owner",
          "type": "address"
        }
      ],
      "name": "balanceOf",
      "outputs": [
        {
          "internalType": "uint256",
          "name": "",
          "type": "uint256"
        }
      ],
      "stateMutability": "view",
      "type": "function",
      "constant": true
    },
    {
      "inputs": [],
      "name": "baseURI",
      "outputs": [
        {
          "internalType": "string",
          "name": "",
          "type": "string"
        }
      ],
      "stateMutability": "view",
      "type": "function",
      "constant": true
    },
    {
      "inputs": [
        {
          "internalType": "uint256",
          "name": "tokenId",
          "type": "uint256"
        }
      ],
      "name": "getApproved",
      "outputs": [
        {
          "internalType": "address",
          "name": "",
          "type": "address"
        }
      ],
      "stateMutability": "view",
      "type": "function",
      "constant": true
    },
    {
      "inputs": [
        {
          "internalType": "address",
          "name": "owner",
          "type": "address"
        },
        {
          "internalType": "address",
          "name": "operator",
          "type": "address"
        }
      ],
      "name": "isApprovedForAll",
      "outputs": [
        {
          "internalType": "bool",
          "name": "",
          "type": "bool"
        }
      ],
      "stateMutability": "view",
      "type": "function",
      "constant": true
    },
    {
      "inputs": [],
      "name": "name",
      "outputs": [
        {
          "internalType": "string",
          "name": "",
          "type": "string"
        }
      ],
      "stateMutability": "view",
      "type": "function",
      "constant": true
    },
    {
      "inputs": [
        {
          "internalType": "uint256",
          "name": "tokenId",
          "type": "uint256"
        }
      ],
      "name": "ownerOf",
      "outputs": [
        {
          "internalType": "address",
          "name": "",
          "type": "address"
        }
      ],
      "stateMutability": "view",
      "type": "function",
      "constant": true
    },
    {
      "inputs": [
        {
          "internalType": "address",
          "name": "from",
          "type": "address"
        },
        {
          "internalType": "address",
          "name": "to",
          "type": "address"
        },
        {
          "internalType": "uint256",
          "name": "tokenId",
          "type": "uint256"
        }
      ],
      "name": "safeTransferFrom",
      "outputs": [],
      "stateMutability": "nonpayable",
      "type": "function"
    },
    {
      "inputs": [
        {
          "internalType": "address",
          "name": "from",
          "type": "address"
        },
        {
          "internalType": "address",
          "name": "to",
          "type": "address"
        },
        {
          "internalType": "uint256",
          "name": "tokenId",
          "type": "uint256"
        },
        {
          "internalType": "bytes",
          "name": "_data",
          "type": "bytes"
        }
      ],
      "name": "safeTransferFrom",
      "outputs": [],
      "stateMutability": "nonpayable",
      "type": "function"
    },
    {
      "inputs": [
        {
          "internalType": "address",
          "name": "operator",
          "type": "address"
        },
        {
          "internalType": "bool",
          "name": "approved",
          "type": "bool"
        }
      ],
      "name": "setApprovalForAll",
      "outputs": [],
      "stateMutability": "nonpayable",
      "type": "function"
    },
    {
      "inputs": [
        {
          "internalType": "bytes4",
          "name": "interfaceId",
          "type": "bytes4"
        }
      ],
      "name": "supportsInterface",
      "outputs": [
        {
          "internalType": "bool",
          "name": "",
          "type": "bool"
        }
      ],
      "stateMutability": "view",
      "type": "function",
      "constant": true
    },
    {
      "inputs": [],
      "name": "symbol",
      "outputs": [
        {
          "internalType": "string",
          "name": "",
          "type": "string"
        }
      ],
      "stateMutability": "view",
      "type": "function",
      "constant": true
    },
    {
      "inputs": [
        {
          "internalType": "uint256",
          "name": "index",
          "type": "uint256"
        }
      ],
      "name": "tokenByIndex",
      "outputs": [
        {
          "internalType": "uint256",
          "name": "",
          "type": "uint256"
        }
      ],
      "stateMutability": "view",
      "type": "function",
      "constant": true
    },
    {
      "inputs": [
        {
          "internalType": "address",
          "name": "owner",
          "type": "address"
        },
        {
          "internalType": "uint256",
          "name": "index",
          "type": "uint256"
        }
      ],
      "name": "tokenOfOwnerByIndex",
      "outputs": [
        {
          "internalType": "uint256",
          "name": "",
          "type": "uint256"
        }
      ],
      "stateMutability": "view",
      "type": "function",
      "constant": true
    },
    {
      "inputs": [
        {
          "internalType": "uint256",
          "name": "tokenId",
          "type": "uint256"
        }
      ],
      "name": "tokenURI",
      "outputs": [
        {
          "internalType": "string",
          "name": "",
          "type": "string"
        }
      ],
      "stateMutability": "view",
      "type": "function",
      "constant": true
    },
    {
      "inputs": [],
      "name": "totalSupply",
      "outputs": [
        {
          "internalType": "uint256",
          "name": "",
          "type": "uint256"
        }
      ],
      "stateMutability": "view",
      "type": "function",
      "constant": true
    },
    {
      "inputs": [
        {
          "internalType": "address",
          "name": "from",
          "type": "address"
        },
        {
          "internalType": "address",
          "name": "to",
          "type": "address"
        },
        {
          "internalType": "uint256",
          "name": "tokenId",
          "type": "uint256"
        }
      ],
      "name": "transferFrom",
      "outputs": [],
      "stateMutability": "nonpayable",
      "type": "function"
    },
    {
      "inputs": [],
      "name": "buyItem",
      "outputs": [
        {
          "internalType": "uint256",
          "name": "",
          "type": "uint256"
        }
      ],
      "stateMutability": "payable",
      "type": "function",
      "payable": true
    },
    {
      "inputs": [],
      "name": "getCurrentTokenId",
      "outputs": [
        {
          "internalType": "uint256",
          "name": "",
          "type": "uint256"
        }
      ],
      "stateMutability": "view",
      "type": "function",
      "constant": true
    },
    {
      "inputs": [],
      "name": "getOwner",
      "outputs": [
        {
          "internalType": "address",
          "name": "",
          "type": "address"
        }
      ],
      "stateMutability": "view",
      "type": "function",
      "constant": true
    },
    {
      "inputs": [],
      "name": "getCap",
      "outputs": [
        {
          "internalType": "uint256",
          "name": "",
          "type": "uint256"
        }
      ],
      "stateMutability": "view",
      "type": "function",
      "constant": true
    },
    {
      "inputs": [
        {
          "internalType": "uint256",
          "name": "newCap",
          "type": "uint256"
        }
      ],
      "name": "setCap",
      "outputs": [
        {
          "internalType": "uint256",
          "name": "",
          "type": "uint256"
        }
      ],
      "stateMutability": "nonpayable",
      "type": "function"
    }
  ],
  "bytecode": "0x60806040526000600c553480156200001657600080fd5b50604051620032fc380380620032fc833981810160405260208110156200003c57600080fd5b81019080805160405193929190846401000000008211156200005d57600080fd5b838201915060208201858111156200007457600080fd5b82518660018202830111640100000000821117156200009257600080fd5b8083526020830192505050908051906020019080838360005b83811015620000c8578082015181840152602081019050620000ab565b50505050905090810190601f168015620000f65780820380516001836020036101000a031916815260200191505b506040525050506040518060400160405280600681526020017f4e667472656500000000000000000000000000000000000000000000000000008152506040518060400160405280600481526020017f5472656500000000000000000000000000000000000000000000000000000000815250620001816301ffc9a760e01b6200025660201b60201c565b8160069080519060200190620001999291906200037b565b508060079080519060200190620001b29291906200037b565b50620001cb6380ac58cd60e01b6200025660201b60201c565b620001e3635b5e139f60e01b6200025660201b60201c565b620001fb63780e9d6360e01b6200025660201b60201c565b50506200020e816200035f60201b60201c565b33600b60006101000a81548173ffffffffffffffffffffffffffffffffffffffff021916908373ffffffffffffffffffffffffffffffffffffffff1602179055505062000431565b63ffffffff60e01b817bffffffffffffffffffffffffffffffffffffffffffffffffffffffff19161415620002f3576040517f08c379a000000000000000000000000000000000000000000000000000000000815260040180806020018281038252601c8152602001807f4552433136353a20696e76616c696420696e746572666163652069640000000081525060200191505060405180910390fd5b6001600080837bffffffffffffffffffffffffffffffffffffffffffffffffffffffff19167bffffffffffffffffffffffffffffffffffffffffffffffffffffffff1916815260200190815260200160002060006101000a81548160ff02191690831515021790555050565b8060099080519060200190620003779291906200037b565b5050565b828054600181600116156101000203166002900490600052602060002090601f016020900481019282620003b35760008555620003ff565b82601f10620003ce57805160ff1916838001178555620003ff565b82800160010185558215620003ff579182015b82811115620003fe578251825591602001919060010190620003e1565b5b5090506200040e919062000412565b5090565b5b808211156200042d57600081600090555060010162000413565b5090565b612ebb80620004416000396000f3fe6080604052600436106101355760003560e01c806356189236116100ab578063893d20e81161006f578063893d20e8146106f657806395d89b4114610737578063a22cb465146107c7578063b88d4fde14610824578063c87b56dd14610936578063e985e9c5146109ea57610135565b806356189236146105535780636352211e1461057e5780636c0360eb146105e357806370a0823114610673578063795612d6146106d857610135565b806323b872dd116100fd57806323b872dd146103255780632f745c59146103a057806342842e0e1461040f57806347786d371461048a5780634f6ccce7146104d9578063554d578d1461052857610135565b806301ffc9a71461013a57806306fdde03146101aa578063081812fc1461023a578063095ea7b31461029f57806318160ddd146102fa575b600080fd5b34801561014657600080fd5b506101926004803603602081101561015d57600080fd5b8101908080357bffffffffffffffffffffffffffffffffffffffffffffffffffffffff19169060200190929190505050610a71565b60405180821515815260200191505060405180910390f35b3480156101b657600080fd5b506101bf610ad8565b6040518080602001828103825283818151815260200191508051906020019080838360005b838110156101ff5780820151818401526020810190506101e4565b50505050905090810190601f16801561022c5780820380516001836020036101000a031916815260200191505b509250505060405180910390f35b34801561024657600080fd5b506102736004803603602081101561025d57600080fd5b8101908080359060200190929190505050610b7a565b604051808273ffffffffffffffffffffffffffffffffffffffff16815260200191505060405180910390f35b3480156102ab57600080fd5b506102f8600480360360408110156102c257600080fd5b81019080803573ffffffffffffffffffffffffffffffffffffffff16906020019092919080359060200190929190505050610c15565b005b34801561030657600080fd5b5061030f610d59565b6040518082815260200191505060405180910390f35b34801561033157600080fd5b5061039e6004803603606081101561034857600080fd5b81019080803573ffffffffffffffffffffffffffffffffffffffff169060200190929190803573ffffffffffffffffffffffffffffffffffffffff16906020019092919080359060200190929190505050610d6a565b005b3480156103ac57600080fd5b506103f9600480360360408110156103c357600080fd5b81019080803573ffffffffffffffffffffffffffffffffffffffff16906020019092919080359060200190929190505050610de0565b6040518082815260200191505060405180910390f35b34801561041b57600080fd5b506104886004803603606081101561043257600080fd5b81019080803573ffffffffffffffffffffffffffffffffffffffff169060200190929190803573ffffffffffffffffffffffffffffffffffffffff16906020019092919080359060200190929190505050610e3b565b005b34801561049657600080fd5b506104c3600480360360208110156104ad57600080fd5b8101908080359060200190929190505050610e5b565b6040518082815260200191505060405180910390f35b3480156104e557600080fd5b50610512600480360360208110156104fc57600080fd5b8101908080359060200190929190505050610f0e565b6040518082815260200191505060405180910390f35b34801561053457600080fd5b5061053d610f31565b6040518082815260200191505060405180910390f35b34801561055f57600080fd5b50610568610f3b565b6040518082815260200191505060405180910390f35b34801561058a57600080fd5b506105b7600480360360208110156105a157600080fd5b8101908080359060200190929190505050610f4c565b604051808273ffffffffffffffffffffffffffffffffffffffff16815260200191505060405180910390f35b3480156105ef57600080fd5b506105f8610f83565b6040518080602001828103825283818151815260200191508051906020019080838360005b8381101561063857808201518184015260208101905061061d565b50505050905090810190601f1680156106655780820380516001836020036101000a031916815260200191505b509250505060405180910390f35b34801561067f57600080fd5b506106c26004803603602081101561069657600080fd5b81019080803573ffffffffffffffffffffffffffffffffffffffff169060200190929190505050611025565b6040518082815260200191505060405180910390f35b6106e06110fa565b6040518082815260200191505060405180910390f35b34801561070257600080fd5b5061070b61120b565b604051808273ffffffffffffffffffffffffffffffffffffffff16815260200191505060405180910390f35b34801561074357600080fd5b5061074c611235565b6040518080602001828103825283818151815260200191508051906020019080838360005b8381101561078c578082015181840152602081019050610771565b50505050905090810190601f1680156107b95780820380516001836020036101000a031916815260200191505b509250505060405180910390f35b3480156107d357600080fd5b50610822600480360360408110156107ea57600080fd5b81019080803573ffffffffffffffffffffffffffffffffffffffff1690602001909291908035151590602001909291905050506112d7565b005b34801561083057600080fd5b506109346004803603608081101561084757600080fd5b81019080803573ffffffffffffffffffffffffffffffffffffffff169060200190929190803573ffffffffffffffffffffffffffffffffffffffff16906020019092919080359060200190929190803590602001906401000000008111156108ae57600080fd5b8201836020820111156108c057600080fd5b803590602001918460018302840111640100000000831117156108e257600080fd5b91908080601f016020809104026020016040519081016040528093929190818152602001838380828437600081840152601f19601f82011690508083019250505050505050919291929050505061148d565b005b34801561094257600080fd5b5061096f6004803603602081101561095957600080fd5b8101908080359060200190929190505050611505565b6040518080602001828103825283818151815260200191508051906020019080838360005b838110156109af578082015181840152602081019050610994565b50505050905090810190601f1680156109dc5780820380516001836020036101000a031916815260200191505b509250505060405180910390f35b3480156109f657600080fd5b50610a5960048036036040811015610a0d57600080fd5b81019080803573ffffffffffffffffffffffffffffffffffffffff169060200190929190803573ffffffffffffffffffffffffffffffffffffffff1690602001909291905050506117ee565b60405180821515815260200191505060405180910390f35b6000806000837bffffffffffffffffffffffffffffffffffffffffffffffffffffffff19167bffffffffffffffffffffffffffffffffffffffffffffffffffffffff1916815260200190815260200160002060009054906101000a900460ff169050919050565b606060068054600181600116156101000203166002900480601f016020809104026020016040519081016040528092919081815260200182805460018160011615610100020316600290048015610b705780601f10610b4557610100808354040283529160200191610b70565b820191906000526020600020905b815481529060010190602001808311610b5357829003601f168201915b5050505050905090565b6000610b8582611882565b610bda576040517f08c379a000000000000000000000000000000000000000000000000000000000815260040180806020018281038252602c815260200180612db0602c913960400191505060405180910390fd5b6004600083815260200190815260200160002060009054906101000a900473ffffffffffffffffffffffffffffffffffffffff169050919050565b6000610c2082610f4c565b90508073ffffffffffffffffffffffffffffffffffffffff168373ffffffffffffffffffffffffffffffffffffffff161415610ca7576040517f08c379a0000000000000000000000000000000000000000000000000000000008152600401808060200182810382526021815260200180612e346021913960400191505060405180910390fd5b8073ffffffffffffffffffffffffffffffffffffffff16610cc661189f565b73ffffffffffffffffffffffffffffffffffffffff161480610cf55750610cf481610cef61189f565b6117ee565b5b610d4a576040517f08c379a0000000000000000000000000000000000000000000000000000000008152600401808060200182810382526038815260200180612d036038913960400191505060405180910390fd5b610d5483836118a7565b505050565b6000610d656002611960565b905090565b610d7b610d7561189f565b82611975565b610dd0576040517f08c379a0000000000000000000000000000000000000000000000000000000008152600401808060200182810382526031815260200180612e556031913960400191505060405180910390fd5b610ddb838383611a69565b505050565b6000610e3382600160008673ffffffffffffffffffffffffffffffffffffffff1673ffffffffffffffffffffffffffffffffffffffff168152602001908152602001600020611cac90919063ffffffff16565b905092915050565b610e568383836040518060200160405280600081525061148d565b505050565b60003373ffffffffffffffffffffffffffffffffffffffff16600b60009054906101000a900473ffffffffffffffffffffffffffffffffffffffff1673ffffffffffffffffffffffffffffffffffffffff1614610eb757600080fd5b6101a4821115610ec657600080fd5b81600c819055507f162238f20a51a0fd11d4e4e9ea154917f3776b59af9fedaeaf42676ad580a2c7826040518082815260200191505060405180910390a1600c549050919050565b600080610f25836002611cc690919063ffffffff16565b50905080915050919050565b6000600c54905090565b6000610f47600a611cf2565b905090565b6000610f7c82604051806060016040528060298152602001612d65602991396002611d009092919063ffffffff16565b9050919050565b606060098054600181600116156101000203166002900480601f01602080910402602001604051908101604052809291908181526020018280546001816001161561010002031660029004801561101b5780601f10610ff05761010080835404028352916020019161101b565b820191906000526020600020905b815481529060010190602001808311610ffe57829003601f168201915b5050505050905090565b60008073ffffffffffffffffffffffffffffffffffffffff168273ffffffffffffffffffffffffffffffffffffffff1614156110ac576040517f08c379a000000000000000000000000000000000000000000000000000000000815260040180806020018281038252602a815260200180612d3b602a913960400191505060405180910390fd5b6110f3600160008473ffffffffffffffffffffffffffffffffffffffff1673ffffffffffffffffffffffffffffffffffffffff168152602001908152602001600020611d1f565b9050919050565b60006702c68af0bb1400003414611179576040517f08c379a000000000000000000000000000000000000000000000000000000000815260040180806020018281038252601e8152602001807f4e65656420746f2073656e642065786163746c7920302e32206574686572000081525060200191505060405180910390fd5b611183600a611d34565b600061118f600a611cf2565b905061119b3382611d4a565b600b60009054906101000a900473ffffffffffffffffffffffffffffffffffffffff1673ffffffffffffffffffffffffffffffffffffffff166108fc349081150290604051600060405180830381858888f19350505050158015611203573d6000803e3d6000fd5b508091505090565b6000600b60009054906101000a900473ffffffffffffffffffffffffffffffffffffffff16905090565b606060078054600181600116156101000203166002900480601f0160208091040260200160405190810160405280929190818152602001828054600181600116156101000203166002900480156112cd5780601f106112a2576101008083540402835291602001916112cd565b820191906000526020600020905b8154815290600101906020018083116112b057829003601f168201915b5050505050905090565b6112df61189f565b73ffffffffffffffffffffffffffffffffffffffff168273ffffffffffffffffffffffffffffffffffffffff161415611380576040517f08c379a00000000000000000000000000000000000000000000000000000000081526004018080602001828103825260198152602001807f4552433732313a20617070726f766520746f2063616c6c65720000000000000081525060200191505060405180910390fd5b806005600061138d61189f565b73ffffffffffffffffffffffffffffffffffffffff1673ffffffffffffffffffffffffffffffffffffffff16815260200190815260200160002060008473ffffffffffffffffffffffffffffffffffffffff1673ffffffffffffffffffffffffffffffffffffffff16815260200190815260200160002060006101000a81548160ff0219169083151502179055508173ffffffffffffffffffffffffffffffffffffffff1661143a61189f565b73ffffffffffffffffffffffffffffffffffffffff167f17307eab39ab6107e8899845ad3d59bd9653f200f220920489ca2b5937696c318360405180821515815260200191505060405180910390a35050565b61149e61149861189f565b83611975565b6114f3576040517f08c379a0000000000000000000000000000000000000000000000000000000008152600401808060200182810382526031815260200180612e556031913960400191505060405180910390fd5b6114ff84848484611d68565b50505050565b606061151082611882565b611565576040517f08c379a000000000000000000000000000000000000000000000000000000000815260040180806020018281038252602f815260200180612e05602f913960400191505060405180910390fd5b6000600860008481526020019081526020016000208054600181600116156101000203166002900480601f01602080910402602001604051908101604052809291908181526020018280546001816001161561010002031660029004801561160e5780601f106115e35761010080835404028352916020019161160e565b820191906000526020600020905b8154815290600101906020018083116115f157829003601f168201915b5050505050905060006009805460018160011615610100020316600290049050141561163d57809150506117e9565b6000815111156117165760098160405160200180838054600181600116156101000203166002900480156116a85780601f106116865761010080835404028352918201916116a8565b820191906000526020600020905b815481529060010190602001808311611694575b505082805190602001908083835b602083106116d957805182526020820191506020810190506020830392506116b6565b6001836020036101000a038019825116818451168082178552505050505050905001925050506040516020818303038152906040529150506117e9565b600961172184611dda565b604051602001808380546001816001161561010002031660029004801561177f5780601f1061175d57610100808354040283529182019161177f565b820191906000526020600020905b81548152906001019060200180831161176b575b505082805190602001908083835b602083106117b0578051825260208201915060208101905060208303925061178d565b6001836020036101000a038019825116818451168082178552505050505050905001925050506040516020818303038152906040529150505b919050565b6000600560008473ffffffffffffffffffffffffffffffffffffffff1673ffffffffffffffffffffffffffffffffffffffff16815260200190815260200160002060008373ffffffffffffffffffffffffffffffffffffffff1673ffffffffffffffffffffffffffffffffffffffff16815260200190815260200160002060009054906101000a900460ff16905092915050565b6000611898826002611f2190919063ffffffff16565b9050919050565b600033905090565b816004600083815260200190815260200160002060006101000a81548173ffffffffffffffffffffffffffffffffffffffff021916908373ffffffffffffffffffffffffffffffffffffffff160217905550808273ffffffffffffffffffffffffffffffffffffffff1661191a83610f4c565b73ffffffffffffffffffffffffffffffffffffffff167f8c5be1e5ebec7d5bd14f71427d1e84f3dd0314c0f7b2291e5b200ac8c7c3b92560405160405180910390a45050565b600061196e82600001611f3b565b9050919050565b600061198082611882565b6119d5576040517f08c379a000000000000000000000000000000000000000000000000000000000815260040180806020018281038252602c815260200180612cd7602c913960400191505060405180910390fd5b60006119e083610f4c565b90508073ffffffffffffffffffffffffffffffffffffffff168473ffffffffffffffffffffffffffffffffffffffff161480611a4f57508373ffffffffffffffffffffffffffffffffffffffff16611a3784610b7a565b73ffffffffffffffffffffffffffffffffffffffff16145b80611a605750611a5f81856117ee565b5b91505092915050565b8273ffffffffffffffffffffffffffffffffffffffff16611a8982610f4c565b73ffffffffffffffffffffffffffffffffffffffff1614611af5576040517f08c379a0000000000000000000000000000000000000000000000000000000008152600401808060200182810382526029815260200180612ddc6029913960400191505060405180910390fd5b600073ffffffffffffffffffffffffffffffffffffffff168273ffffffffffffffffffffffffffffffffffffffff161415611b7b576040517f08c379a0000000000000000000000000000000000000000000000000000000008152600401808060200182810382526024815260200180612c8d6024913960400191505060405180910390fd5b611b86838383611f4c565b611b916000826118a7565b611be281600160008673ffffffffffffffffffffffffffffffffffffffff1673ffffffffffffffffffffffffffffffffffffffff16815260200190815260200160002061201090919063ffffffff16565b50611c3481600160008573ffffffffffffffffffffffffffffffffffffffff1673ffffffffffffffffffffffffffffffffffffffff16815260200190815260200160002061202a90919063ffffffff16565b50611c4b818360026120449092919063ffffffff16565b50808273ffffffffffffffffffffffffffffffffffffffff168473ffffffffffffffffffffffffffffffffffffffff167fddf252ad1be2c89b69c2b068fc378daa952ba7f163c4a11628f55a4df523b3ef60405160405180910390a4505050565b6000611cbb8360000183612079565b60001c905092915050565b600080600080611cd986600001866120fc565b915091508160001c8160001c9350935050509250929050565b600081600001549050919050565b6000611d13846000018460001b84612195565b60001c90509392505050565b6000611d2d8260000161228b565b9050919050565b6001816000016000828254019250508190555050565b611d6482826040518060200160405280600081525061229c565b5050565b611d73848484611a69565b611d7f8484848461230d565b611dd4576040517f08c379a0000000000000000000000000000000000000000000000000000000008152600401808060200182810382526032815260200180612c5b6032913960400191505060405180910390fd5b50505050565b60606000821415611e22576040518060400160405280600181526020017f30000000000000000000000000000000000000000000000000000000000000008152509050611f1c565b600082905060005b60008214611e4c578080600101915050600a8281611e4457fe5b049150611e2a565b60008167ffffffffffffffff81118015611e6557600080fd5b506040519080825280601f01601f191660200182016040528015611e985781602001600182028036833780820191505090505b50905060006001830390508593505b60008414611f1457600a8481611eb957fe5b0660300160f81b82828060019003935081518110611ed357fe5b60200101907effffffffffffffffffffffffffffffffffffffffffffffffffffffffffffff1916908160001a905350600a8481611f0c57fe5b049350611ea7565b819450505050505b919050565b6000611f33836000018360001b612526565b905092915050565b600081600001805490509050919050565b611f57838383612549565b600073ffffffffffffffffffffffffffffffffffffffff168373ffffffffffffffffffffffffffffffffffffffff16141561200b57600c54611f97610d59565b1061200a576040517f08c379a000000000000000000000000000000000000000000000000000000000815260040180806020018281038252601b8152602001807f455243373231204361707065643a20636170206578636565646564000000000081525060200191505060405180910390fd5b5b505050565b6000612022836000018360001b61254e565b905092915050565b600061203c836000018360001b612636565b905092915050565b6000612070846000018460001b8473ffffffffffffffffffffffffffffffffffffffff1660001b6126a6565b90509392505050565b6000818360000180549050116120da576040517f08c379a0000000000000000000000000000000000000000000000000000000008152600401808060200182810382526022815260200180612c396022913960400191505060405180910390fd5b8260000182815481106120e957fe5b9060005260206000200154905092915050565b6000808284600001805490501161215e576040517f08c379a0000000000000000000000000000000000000000000000000000000008152600401808060200182810382526022815260200180612d8e6022913960400191505060405180910390fd5b600084600001848154811061216f57fe5b906000526020600020906002020190508060000154816001015492509250509250929050565b6000808460010160008581526020019081526020016000205490506000811415839061225c576040517f08c379a00000000000000000000000000000000000000000000000000000000081526004018080602001828103825283818151815260200191508051906020019080838360005b83811015612221578082015181840152602081019050612206565b50505050905090810190601f16801561224e5780820380516001836020036101000a031916815260200191505b509250505060405180910390fd5b5084600001600182038154811061226f57fe5b9060005260206000209060020201600101549150509392505050565b600081600001805490509050919050565b6122a68383612782565b6122b3600084848461230d565b612308576040517f08c379a0000000000000000000000000000000000000000000000000000000008152600401808060200182810382526032815260200180612c5b6032913960400191505060405180910390fd5b505050565b600061232e8473ffffffffffffffffffffffffffffffffffffffff16612976565b61233b576001905061251e565b60006124a563150b7a0260e01b61235061189f565b888787604051602401808573ffffffffffffffffffffffffffffffffffffffff1681526020018473ffffffffffffffffffffffffffffffffffffffff16815260200183815260200180602001828103825283818151815260200191508051906020019080838360005b838110156123d45780820151818401526020810190506123b9565b50505050905090810190601f1680156124015780820380516001836020036101000a031916815260200191505b5095505050505050604051602081830303815290604052907bffffffffffffffffffffffffffffffffffffffffffffffffffffffff19166020820180517bffffffffffffffffffffffffffffffffffffffffffffffffffffffff8381831617835250505050604051806060016040528060328152602001612c5b603291398773ffffffffffffffffffffffffffffffffffffffff166129899092919063ffffffff16565b905060008180602001905160208110156124be57600080fd5b8101908080519060200190929190505050905063150b7a0260e01b7bffffffffffffffffffffffffffffffffffffffffffffffffffffffff1916817bffffffffffffffffffffffffffffffffffffffffffffffffffffffff191614925050505b949350505050565b600080836001016000848152602001908152602001600020541415905092915050565b505050565b6000808360010160008481526020019081526020016000205490506000811461262a576000600182039050600060018660000180549050039050600086600001828154811061259957fe5b90600052602060002001549050808760000184815481106125b657fe5b90600052602060002001819055506001830187600101600083815260200190815260200160002081905550866000018054806125ee57fe5b60019003818190600052602060002001600090559055866001016000878152602001908152602001600020600090556001945050505050612630565b60009150505b92915050565b600061264283836129a1565b61269b5782600001829080600181540180825580915050600190039060005260206000200160009091909190915055826000018054905083600101600084815260200190815260200160002081905550600190506126a0565b600090505b92915050565b600080846001016000858152602001908152602001600020549050600081141561274d5784600001604051806040016040528086815260200185815250908060018154018082558091505060019003906000526020600020906002020160009091909190915060008201518160000155602082015181600101555050846000018054905085600101600086815260200190815260200160002081905550600191505061277b565b8285600001600183038154811061276057fe5b90600052602060002090600202016001018190555060009150505b9392505050565b600073ffffffffffffffffffffffffffffffffffffffff168273ffffffffffffffffffffffffffffffffffffffff161415612825576040517f08c379a00000000000000000000000000000000000000000000000000000000081526004018080602001828103825260208152602001807f4552433732313a206d696e7420746f20746865207a65726f206164647265737381525060200191505060405180910390fd5b61282e81611882565b156128a1576040517f08c379a000000000000000000000000000000000000000000000000000000000815260040180806020018281038252601c8152602001807f4552433732313a20746f6b656e20616c7265616479206d696e7465640000000081525060200191505060405180910390fd5b6128ad60008383611f4c565b6128fe81600160008573ffffffffffffffffffffffffffffffffffffffff1673ffffffffffffffffffffffffffffffffffffffff16815260200190815260200160002061202a90919063ffffffff16565b50612915818360026120449092919063ffffffff16565b50808273ffffffffffffffffffffffffffffffffffffffff16600073ffffffffffffffffffffffffffffffffffffffff167fddf252ad1be2c89b69c2b068fc378daa952ba7f163c4a11628f55a4df523b3ef60405160405180910390a45050565b600080823b905060008111915050919050565b606061299884846000856129c4565b90509392505050565b600080836001016000848152602001908152602001600020541415905092915050565b606082471015612a1f576040517f08c379a0000000000000000000000000000000000000000000000000000000008152600401808060200182810382526026815260200180612cb16026913960400191505060405180910390fd5b612a2885612976565b612a9a576040517f08c379a000000000000000000000000000000000000000000000000000000000815260040180806020018281038252601d8152602001807f416464726573733a2063616c6c20746f206e6f6e2d636f6e747261637400000081525060200191505060405180910390fd5b6000808673ffffffffffffffffffffffffffffffffffffffff1685876040518082805190602001908083835b60208310612ae95780518252602082019150602081019050602083039250612ac6565b6001836020036101000a03801982511681845116808217855250505050505090500191505060006040518083038185875af1925050503d8060008114612b4b576040519150601f19603f3d011682016040523d82523d6000602084013e612b50565b606091505b5091509150612b60828286612b6c565b92505050949350505050565b60608315612b7c57829050612c31565b600083511115612b8f5782518084602001fd5b816040517f08c379a00000000000000000000000000000000000000000000000000000000081526004018080602001828103825283818151815260200191508051906020019080838360005b83811015612bf6578082015181840152602081019050612bdb565b50505050905090810190601f168015612c235780820380516001836020036101000a031916815260200191505b509250505060405180910390fd5b939250505056fe456e756d657261626c655365743a20696e646578206f7574206f6620626f756e64734552433732313a207472616e7366657220746f206e6f6e20455243373231526563656976657220696d706c656d656e7465724552433732313a207472616e7366657220746f20746865207a65726f2061646472657373416464726573733a20696e73756666696369656e742062616c616e636520666f722063616c6c4552433732313a206f70657261746f7220717565727920666f72206e6f6e6578697374656e7420746f6b656e4552433732313a20617070726f76652063616c6c6572206973206e6f74206f776e6572206e6f7220617070726f76656420666f7220616c6c4552433732313a2062616c616e636520717565727920666f7220746865207a65726f20616464726573734552433732313a206f776e657220717565727920666f72206e6f6e6578697374656e7420746f6b656e456e756d657261626c654d61703a20696e646578206f7574206f6620626f756e64734552433732313a20617070726f76656420717565727920666f72206e6f6e6578697374656e7420746f6b656e4552433732313a207472616e73666572206f6620746f6b656e2074686174206973206e6f74206f776e4552433732314d657461646174613a2055524920717565727920666f72206e6f6e6578697374656e7420746f6b656e4552433732313a20617070726f76616c20746f2063757272656e74206f776e65724552433732313a207472616e736665722063616c6c6572206973206e6f74206f776e6572206e6f7220617070726f766564a2646970667358221220db232fe3ccad706f37c75bceaccfce9a15762684737d25f4abba5ba3e19779f164736f6c63430007060033",
  "immutableReferences": {},
  "source": "// SPDX-License-Identifier: MIT\npragma solidity >=0.7.0 <0.8.0;\n\nimport \"@openzeppelin/contracts/token/ERC721/ERC721.sol\";\nimport \"@openzeppelin/contracts/utils/Counters.sol\";\nimport \"@openzeppelin/contracts/utils/Strings.sol\";\n\ncontract Nftrees is ERC721 {\n    using Counters for Counters.Counter;\n    Counters.Counter private _tokenIds;\n\n    address payable private _owner;\n    uint256 private _cap = 0;\n\n    event CapChanged(uint256 newCap);\n\n    constructor(string memory myBase) ERC721(\"Nftree\", \"Tree\") {\n        _setBaseURI(myBase);\n        _owner = msg.sender;\n    }\n\n    function buyItem()\n        public\n        payable\n        returns (uint256)\n    {\n        require(msg.value == 0.2 ether, \"Need to send exactly 0.2 ether\");\n        _tokenIds.increment();\n        uint256 newItemId = _tokenIds.current();\n        _safeMint(msg.sender, newItemId);\n        _owner.transfer(msg.value);\n        return newItemId;\n    }   \n\n    function getCurrentTokenId() public view returns (uint256){\n        return _tokenIds.current();\n    }\n\n    function getOwner() public view returns (address) {\n        return _owner;\n    }\n\n    function getCap() public view returns (uint256){\n        return _cap;\n    }\n\n    function setCap(uint256 newCap) public returns (uint256){\n        require(_owner==msg.sender);\n        require(newCap<=420);\n        _cap = newCap;\n        emit CapChanged(newCap);\n        return _cap;\n    }\n\n    function _beforeTokenTransfer(address from, address to, uint256 tokenId) internal virtual override {\n        super._beforeTokenTransfer(from, to, tokenId);\n        if (from == address(0)) { \n            require(totalSupply() < _cap, \"ERC721 Capped: cap exceeded\");\n        }\n    }\n}",
  "sourcePath": "/Users/amran/Documents/nftrees/nftrees-next/ethereum/contracts/Nftrees.sol",
  "compiler": {
    "name": "solc",
    "version": "0.7.6+commit.7338295f.Emscripten.clang"
  },
  "schemaVersion": "3.3.3",
  "updatedAt": "2021-01-29T22:48:55.620Z",
  "networkType": "ethereum",
  "devdoc": {
    "kind": "dev",
    "methods": {
      "approve(address,uint256)": {
        "details": "See {IERC721-approve}."
      },
      "balanceOf(address)": {
        "details": "See {IERC721-balanceOf}."
      },
      "baseURI()": {
        "details": "Returns the base URI set via {_setBaseURI}. This will be automatically added as a prefix in {tokenURI} to each token's URI, or to the token ID if no specific URI is set for that token ID."
      },
      "getApproved(uint256)": {
        "details": "See {IERC721-getApproved}."
      },
      "isApprovedForAll(address,address)": {
        "details": "See {IERC721-isApprovedForAll}."
      },
      "name()": {
        "details": "See {IERC721Metadata-name}."
      },
      "ownerOf(uint256)": {
        "details": "See {IERC721-ownerOf}."
      },
      "safeTransferFrom(address,address,uint256)": {
        "details": "See {IERC721-safeTransferFrom}."
      },
      "safeTransferFrom(address,address,uint256,bytes)": {
        "details": "See {IERC721-safeTransferFrom}."
      },
      "setApprovalForAll(address,bool)": {
        "details": "See {IERC721-setApprovalForAll}."
      },
      "supportsInterface(bytes4)": {
        "details": "See {IERC165-supportsInterface}. Time complexity O(1), guaranteed to always use less than 30 000 gas."
      },
      "symbol()": {
        "details": "See {IERC721Metadata-symbol}."
      },
      "tokenByIndex(uint256)": {
        "details": "See {IERC721Enumerable-tokenByIndex}."
      },
      "tokenOfOwnerByIndex(address,uint256)": {
        "details": "See {IERC721Enumerable-tokenOfOwnerByIndex}."
      },
      "tokenURI(uint256)": {
        "details": "See {IERC721Metadata-tokenURI}."
      },
      "totalSupply()": {
        "details": "See {IERC721Enumerable-totalSupply}."
      },
      "transferFrom(address,address,uint256)": {
        "details": "See {IERC721-transferFrom}."
      }
    },
    "version": 1
  },
  "userdoc": {
    "kind": "user",
    "methods": {},
    "version": 1
  }
}